:020000040800F2
:10000000A03F0120B5030008332700086125000840
:1000100031270008712100081D360008000000008B
:10002000000000000000000000000000F5020008D1
:10003000732100080000000051030008C1310008CE
:10004000CF030008CF030008CF030008B12F00083A
:10005000CF030008CF030008C9210008CF03000820
:100060000D2200085122000895220008CF03000845
:10007000CF030008CF030008CF030008CF03000818
:10008000CF030008CF030008CF030008CF03000808
:10009000CF030008CF030008CF030008D9220008CF
:1000A000CF030008CF030008CF030008CF030008E8
:1000B000CF03000849320008CF030008CF0300082F
:1000C000CF030008CF030008CF030008CF030008C8
:1000D000CF030008A9330008113400085D3400087C
:1000E000CF030008CF030008CF030008CF030008A8
:1000F000CF030008CF030008CF030008CF03000898
:10010000CF030008CF030008CF030008CF03000887
:10011000CF030008CF030008CF030008CF03000877
:10012000CF030008CF030008CF030008CF03000867
:10013000CF030008CF030008CF030008CF03000857
:10014000CF030008CF030008CF030008CF03000847
:10015000CF030008CF030008CF030008CF03000837
:10016000CF030008CF030008CF030008CF03000827
:10017000CF030008CF030008CF030008CF03000817
:10018000CF030008CF03000800F002F800F0A2F847
:100190000AA090E8000C82448344AAF10107DA45E2
:1001A00001D100F097F8AFF2090EBAE80F0013F092
:1001B000010F18BFFB1A43F00103184738800000F5
:1001C000588000000A4410F8014B14F00F0508BFD6
:1001D00010F8015B240908BF10F8014B6D1E05D013
:1001E00010F8013B6D1E01F8013BF9D1641E03D0EC
:1001F000641E01F8015BFBD19142E4D3704700001B
:100200000023002400250026103A28BF78C1FBD81F
:10021000520728BF30C148BF0B6070476E2900F0FD
:10022000C684702900F0DD81662907F030836529D6
:1002300007F02D83672907F02A836129AFF3008037
:1002400003681B0A28BF41F08001692900F04E8134
:10025000642900F04B81752900F048816F2900F076
:10026000BE85782900F0A981E92900F05985E429A3
:1002700000F05685F52900F05385EF2900F0BB8585
:10028000F82900F0A8810368DB0928BF41F080014C
:10029000632900F0C884732900F0CD84E32901F0BC
:1002A0008280F32901F08780002070471FB507F096
:1002B000E9FA01F091FA04000020002107F0CCFADD
:1002C000401C60600020002107F0B0FAE0601FBD14
:1002D00010B510BD01F052FA1146FFF7E7FF05F027
:1002E000CDFA01F02FFB03B4FFF7F2FF03BC03F0DC
:1002F00012FB00002C4B19680868B0E8F04F80F33F
:100300000988BFF36F8F4FF0000080F311887047AA
:100310000000000008480068006880F308884FF07B
:10032000000080F3148862B661B6BFF34F8FBFF34D
:100330006F8F00DF00BF00BF08ED00E0DFF80C00AA
:10034000016841F470010160704700BF88ED00E072
:10035000EFF30980BFF36F8F134B1A681EF0100F75
:1003600008BF20ED108A20E9F04F106009B44FF06B
:10037000500080F31188BFF34F8FBFF36F8F06F0EB
:1003800041FB4FF0000080F3118809BC1968086830
:10039000B0E8F04F1EF0100F08BFB0EC108A80F3E9
:1003A0000988BFF36F8F7047D8080020EFF30580EE
:1003B000704700000A4880470A480047FEE7FEE70A
:1003C000FEE7FEE7FEE7FEE7FEE7FEE7FEE704F0F6
:1003D00053FDFEE704480549054A064B70470000F7
:1003E000ED31000889010008A0390120A03F01205B
:1003F000A03B0120A03B0120704700000A460149B4
:1004000000F01EBCC40800200FB4044910B503AAB4
:10041000029800F015FC10BC5DF814FBC408002025
:100420000FB41CB5084B06AA7B446946009005989A
:1004300000F0D7FB04460020694600F0E5FB2046AB
:100440001CBC5DF814FB0000DD07000070B504461D
:1004500085690068C10601D5302600E02026C00766
:1004600007D070BDD4E9012130469047206A401C76
:1004700020626D1EF6D570BD70B5044685690078A2
:10048000C00707D170BDD4E9012120209047206A20
:10049000401C20626D1EF6D570BD70B50C46054639
:1004A000012A05D02878800600D5EA69002302E0F9
:1004B000012305E05B1C934202D2E05C0028F9D1E5
:1004C000A869E618C01AA861286A18442862284654
:1004D000FFF7BCFF04E0D5E9012114F8010B9047B8
:1004E000B442F8D32846FFF7C7FF70BD2DE9F041AD
:1004F0000646002410687529314616A510D000F074
:10050000EBFA002802DA404213A507E031688A07B7
:1005100001D512A502E0490704D511A5012401E087
:1005200000F0E3FA00210A2206F1240709E0B0FBFB
:10053000F2FCB0FBF2F302FB1C003030785418469A
:10054000491C0028F3D123462A463046BDE8F04135
:1005500000F0D4BA000000002D0000002B000000C5
:1005600020000000F0B40D460188090502D5214C99
:100570007C4402E01F4C7C440E34002100F1240630
:1005800008E002F00F071209E75D42EA03721B0957
:100590007754491C52EA0307F3D10278002312076B
:1005A00004D5702D06D009B1022311342246F0BCC7
:1005B00000F0A4BA01231034F8E770B504460D46E4
:1005C0002146106800F091FA024629462046BDE80F
:1005D00070400023C6E7D21D22F00703D3E90023B1
:1005E000C0E70368126843F0200303600823C36177
:1005F0000023B7E7AA7B00002DE9F05F8946044697
:100600004FF0000ADFF874B1FB44C0F820A0204688
:10061000E1688847002874D0252806D0D4E9012154
:100620009047206A401C2062F1E700265F46204682
:10063000E16888472028054607DB312D05D2781967
:1006400010F8200C08B10643F1E7B00701D526F0F9
:100650000406C4F81CA00027C4F818A02A2D09D04D
:10066000284603F051F938B304EB8708303DC8F849
:10067000185019E059F8041B204604EB87029161D9
:10068000E1688847012F054618D1E069002820DA83
:1006900026F020061DE0D8F8180000EB800005EBDE
:1006A00040003038C8F818002046E1688847054601
:1006B00003F02AF90028EED1012F0AD02E2D08D1FF
:1006C0002046E16888477F1C0546022F46F0200639
:1006D000C4DBA069002803DA404246F00106A061AD
:1006E000F00701D026F010066C2D0BD0682D09D034
:1006F0004C2D39D06A2D35D0742D35D07A2D33D08C
:1007000016E038E0E1682F4620468847B8420546A3
:1007100009D16C2F26D04FF48060E1680643204653
:100720008847054604E06C2F1AD04FF480700643CA
:100730000DB3A5F14100192802D8203546F4006612
:100740004A462946204626604E46FFF767FD80B19F
:1007500001280BD0F61D26F0070000F1080956E726
:100760004020E4E78020D8E70020D6E706F104091E
:100770004DE7284652E7206ABDE8F09F3A7B00002B
:100780000FB400B58DB010A9099000910B904FF0F7
:10079000FF300A9000200C900648784406900648E6
:1007A00078446A4607900F9909A800F043FB0DB002
:1007B0005DF814FBB7060000CF0600002DE9FF5FCF
:1007C0001D464FF0FF3B91464FF000085F46D5E9CC
:1007D0000146A96901987F1C8847296A8246884793
:1007E0000028F6D1BAF1FF3F0CD0002E24F4C064EB
:1007F00019DD600614D5BAF12B0F09D0BAF12D0F0F
:100800000ED103E0584604B0BDE8F09F44F4806484
:10081000A96901987F1C8847761E8246002E02DD5A
:10082000BAF1300F03D0B9F1000F26D032E0A96938
:10083000761E01987F1C44F400748847002E82467F
:1008400005DDBAF1780F06D0BAF1580F03D0B9F12F
:10085000000F10D01EE0B9F1000F02D0B9F1100F57
:1008600018D1A969761E01987F1C24F4007488476A
:100870008246102002E0082000E00A20814609E0BC
:10088000A96908FB0908761E01987F1C44F40074CE
:1008900088478246002E05DD4946504600F0B6FAEC
:1008A0000028EDDAE96901988847A00502D46FF0C5
:1008B0000100A8E7E00725D1600613D5600502D541
:1008C000C8F1000000E0404629680A1D2A60096856
:1008D000220501D5087015E0220701D5088011E036
:1008E00008600FE02868011D29600068210502D515
:1008F00080F8008006E0210702D5A0F8008001E022
:10090000C0F8008038467EE730B505460B462A46DB
:1009100013F8014B12F8010B08B1A042F8D01CB13A
:10092000002802D06D1CF1E7284630BD40EA0103E3
:1009300010B59B070FD1042A0DD310C808C9121F88
:100940009C42F8D020BA19BA884201D9012010BDC2
:100950004FF0FF3010BD1AB1D30703D0521C07E08F
:10096000002010BD10F8013B11F8014B1B1B07D1F3
:1009700010F8013B11F8014B1B1B01D1921EF1D164
:10098000184610BD032A40F2308010F0030C00F02E
:10099000158011F8013BBCF1020F624498BF11F8B9
:1009A00001CB00F8013B38BF11F8013BA2F1040272
:1009B00098BF00F801CB38BF00F8013B11F00303EA
:1009C00000F02580083AC0F0088051F8043B083A4E
:1009D00051F804CBA0E80810F5E7121D5CBF51F8F0
:1009E000043B40F8043BAFF30080D20724BF11F86A
:1009F000013B11F801CB48BF11F8012B24BF00F8CF
:100A0000013B00F801CB48BF00F8012B704710B53F
:100A1000203AC0F00B80B1E81850203AA0E81850F6
:100A2000B1E81850A0E81850BFF4F5AF5FEA027CB7
:100A300024BFB1E81850A0E8185044BF18C918C026
:100A4000BDE810405FEA827C24BF51F8043B40F8C7
:100A5000043B08BF7047D20728BF31F8023B48BFAC
:100A600011F8012B28BF20F8023B48BF00F8012BEA
:100A7000704702F0FF0343EA032242EA024200F019
:100A80000BBA4FF0000200B5134694469646203943
:100A900022BFA0E80C50A0E80C50B1F12001BFF437
:100AA000F7AF090728BFA0E80C5048BF0CC05DF89D
:100AB00004EB890028BF40F8042B08BF704748BFEB
:100AC00020F8022B11F0804F18BF00F8012B70475F
:100AD000704770477047704709684A0501D540B2B2
:100AE0007047C905FCD500B2704709684A0501D5B1
:100AF000C0B27047C905FCD580B270472DE9F047F8
:100B00000D4699469246044600F12408016888067D
:100B100004D5E06921F01001216000E00120A84225
:100B200001DD471B00E00027A1697A1902EB0900EB
:100B3000081AA0612078C00602D42046FFF786FC80
:100B4000002608E0D4E901211AF806009047206A3F
:100B5000401C761C20624E45F4DB2078C0060AD586
:100B60002046FFF773FC06E0D4E9012130209047CE
:100B7000206A401C2062381EA7F10107F4DC07E060
:100B8000D4E9012118F805009047206A401C206232
:100B9000281EA5F10105F3DC2046FFF76DFC207847
:100BA000000602D50220BDE8F0870120FBE71168AE
:100BB0000268006A530501D508700AE0D30501D523
:100BC000088006E0130603D5C217C1E9000200E061
:100BD000086001207047000001694A1C0261087822
:100BE000704700B58FB0CDE901310021059105496D
:100BF0007944CDE9031011466846FFF7FDFC0FB0BC
:100C000000BD0000E5FFFFFF0A6802F8010B0A6063
:100C1000704710B5436913B1AFF3008001E0FFF7EF
:100C20003CFC012010BD127800F124010A70002262
:100C30004A700122EDE711684FF0FF32E9E700004A
:100C4000074B70B50D467B44FFF7CBFF04462846A3
:100C500000F070FD10B14FF0FF3070BD204670BD48
:100C6000034900002DE9FF5F15468A460446DFF878
:100C7000AC80F8440027D8E900103E46CDE90010CA
:100C800010E03AF816106A4602A800F057FD411C21
:100C900007D02178890603D5E269391891420DD829
:100CA0000744761C2078800602D5E069B84205DD4D
:100CB000AE42E6DB3AF816000028E2D1A069C01B7C
:100CC000A0612046FFF7C2FBD8E90010CDE9001073
:100CD000002017E03AF818106A4602A800F02EFD2E
:100CE000B0F1FF3F81460BD000250DF1080B05E068
:100CF000D4E901211BF8050090476D1C4D45F7D341
:100D000008F10100B0428046E4DB206A38442062EA
:100D10002046FFF7B1FBBDE8FF9F0000E274000032
:100D20002DE9F0418046D21D22F007020025D2E9CC
:100D30000002F52915A614D0011E72F1000106DA91
:100D40000023D0EB030063EB020211A608E0D8F801
:100D500000108B0701D50FA602E0490701D50EA6AA
:100D600001251146002408F1240704E000F0B4F83E
:100D700030323A55641C50EA0102F7D12B46324614
:100D800021464046BDE8F041FFF7B8BE0000000034
:100D90002D0000002B0000002000000030B40021D6
:100DA00000F1240408E002F00705D208303542EAD9
:100DB0004372DB086554491C52EA0305F3D1046809
:100DC000002310A2250707D5A40600D421B1C469C9
:100DD00001230DA2641EC46130BCFFF78FBE10B5A5
:100DE000044621461068FFF780FE02462046BDE813
:100DF00010400023D2E7D21D22F00701D1E90023E1
:100E0000CCE7000000000000300000003A2800D2CB
:100E1000303820F02002412A01D3A2F13700884265
:100E200001D34FF0FF30704702681144137801601E
:100E300018467047D16005497944516104497944A5
:100E4000116200211161114600F0BABAEDFFFFFFF7
:100E500021010000426842B1016811F8013B23B151
:100E6000521EC0E90012184670470121C160881E59
:100E7000704742685AB1C368016843B983688B42BE
:100E800005D0491E521CC0E90012002070474FF0E7
:100E9000FF3070474FF000020429C0F0128010F0BC
:100EA000030C3FF4F0ADCCF1040CBCF1020F18BF01
:100EB00000F8012BA8BF20F8022BA1EB0C01FFF7D3
:100EC000E2BD5FEAC17C24BF00F8012B00F8012BD2
:100ED00048BF00F8012B704730B5B0F10A024FEA65
:100EE000900E71F100034EEA817EB0EB0E0061EBD3
:100EF00091014FEA101E4EEA017E10EB0E0041EB0D
:100F000011114FEA102E4EEA016E10EB0E0041EB6C
:100F100011214FEA104E4EEA014E10EB0E0041EB4C
:100F20001141401841F100014FEAD00040EA417000
:100F30004FEAD10110EB80054FEA810444EA907436
:100F400044EB01046D1944EB0404521BA3414FF020
:100F5000000348BF0A3200D530BD401C41F10001FA
:100F600030BD10B5044600F02FFC0068005D00F0B5
:100F7000010010BD70472DE9FF4F0C461E464FF093
:100F8000FF378BB0D2E90001DDF860800A908A4615
:100F9000C1F30A5505B93D46002108464FF000004F
:100FA000BAF1000F00F4400005DA00EB80004FF4C6
:100FB000400101EA50004FEA9059B9F1010F00DDFC
:100FC000B9460A9850EA4A000ED044F61050A5F2ED
:100FD000FF3545432F14B8F1000F1ED07542291E6E
:100FE0001EDDC9F100021CE0B8F1010F4FF0000056
:100FF00001D0302103E0F24305E02154401CB0420F
:10100000FBDB30460022002121540B99C1F80880F7
:10101000C1E900200FB0BDE8F08FBD1B6D1CDEE7FD
:101020004A4600DA694206A800F01AFC06AB93E8CB
:10103000070003AB83E8070050460A9900F0D0FC94
:101040008DE80700A0F500501F3800900398002D90
:101050000ADD42F21F014A460844002303A9039017
:10106000684600F039FF09E0A0F500504A461F38F5
:10107000002303A90390684600F043FF8DE80700B2
:101080000004000C03D04FF0FF30410800E0104690
:10109000B8F1000F03D00022009215461EE0751E25
:1010A00005D4FFF719FF303262556D1EF9D5B346EE
:1010B0000122084302D000227F1C04E0207830285F
:1010C00001D100227F1E002A099784D01DE0112D36
:1010D00007DAFFF701FF303262556D1C50EA01025A
:1010E000F5D1084302D00098C8B10EE00021681E77
:1010F00005E0235C625C63542254401E491C81421B
:10110000F7DBAB46A81B401E0990002004F80B003B
:101110000B98099AC0F80880C0E9002B7AE71126DD
:101120004FF0000857E72DE9F04F88460446D21DDE
:1011300022F0070191B0D1E90001CDE90A0102F0E6
:10114000CBFB02460B98C00F01D02D2007E0206892
:10115000810701D52B2002E0202101EAC000032AEB
:10116000099001D0072A05DB03464146204600F0DE
:1011700037FB0BE12078800601D5E06900E006200E
:10118000B8F1650F814606D0B8F1660F18D0B8F1F6
:10119000670F70D131E00020B9F1110F009001DB31
:1011A000112301E009F101030AAA01A90CA8FFF724
:1011B000E2FEDDE90C70002609F10105834647E0F7
:1011C00001204B4600904FF000470AAA01A90CA845
:1011D000FFF7D1FEDDE90DB00C995D46002610B990
:1011E00009F101000D18B9EB050003D4C0F1FF3679
:1011F00009F10105A5EB09002BE0B9F1010F01DAB6
:101200004FF001090020B9F1110F0090484601DDAF
:10121000112300E003460AAA01A90CA8FFF7ABFEC0
:10122000DDE90C704D4600268346207800070AD47D
:10123000AB4500DA5D4601A8012D04DD411911F826
:10124000011C302907D04F4502DA17F1040F04DAE8
:10125000012082460FE06D1EEEE7002F02DCED1B41
:101260003E4403E0781CA84200DD7D1CB81B00F161
:10127000010A4FF000472078000703D4AA4501DB9C
:101280004FF0FF3A0021B7F1004F0DF143088DF800
:10129000431024D002202B23002F01DA7F422D237C
:1012A0000A21021EA0F1010000DC5FB197FBF1FCF6
:1012B00097FBF1F201FB1C7C17460CF1300C08F88F
:1012C00001CDEEE7A8F1010003702188090501D5E1
:1012D000452100E06521A0F1010800F8011C0998F2
:1012E0000FA9A1EB0807FF1D00B10120411901EB77
:1012F000EA70A1693844081A401EA0612078C0062F
:1013000002D42046FFF7A2F8099828B1D4E90121B8
:101310009047206A401C20622078C00622D52046D3
:10132000FFF794F81EE0002E04DBB34502DD01A8B0
:10133000805D00E03020D4E901219047206A401C04
:101340002062761CAAF101005FEA000A0AD100F0CF
:1013500043FAC0680168405CD4E901219047206AE3
:10136000401C2062281EA5F10105DCDC07E0D4E961
:10137000012118F8010B9047206A401C2062381E9A
:10138000A7F10107F3DC2046FFF776F8032011B040
:1013900041E610B5436913B1AFF3008001E0FFF7F8
:1013A00061FC012010BD128800F12401828400221A
:1013B000C2840122EDE711684FF0FF32E9E7000037
:1013C0002DE9F34F4FF0000A0C4656468DB0012030
:1013D0000C9001F10C000B9062690B980121904771
:1013E000051E2DD0252D2CD0216A8847C0B16269F9
:1013F0000B9801219047216A88470028F7D162693C
:10140000411E0B98904700E0761CA1690D98884713
:10141000216A88470028F7D1E1690D988847DBE702
:10142000A1690D988847A842074601D1761CD3E7E9
:10143000E1690D9888477F1C02D1BAF1000F6FD087
:101440006CE162690B9800273D46394690472A288F
:1014500004D162690B98012190470125DFF8D08201
:1014600062690B9801219047A0F130010A290AD244
:101470004745E5DC07EB870100EB4107303FDFD450
:1014800045F01005ECE7E90601D46FF000476C2841
:101490000AD04C2814D0682815D06A280DD074289A
:1014A0001CD07A281AD01DE062690B980121904760
:1014B0006C2802D045F0040514E045F002050DE06B
:1014C00045F020050AE062690B98012190476828E1
:1014D00002D045F0080505E045F4006562690B9807
:1014E00001219047C4E9015765283DD019DC5828EF
:1014F0007AD00CDC452837D004DC252826D04128BA
:101500009ED131E046282FD0472899D12CE05B2886
:1015100077D0612828D063287CD0642823D15AE072
:10152000F7E06F2848D008DC66281DD067281BD05C
:10153000692821D06E2816D127E0702845D073285D
:1015400068D0752847D078280DD14DE0A1690D9855
:101550008847252805463FF469AFE1690D9888471B
:101560006D1C3FF46AAFD9E00D9923466A466FF0CF
:101570000100AFF30080C6E045F0400023464FF085
:1015800000026060A80736D43EE0E8077FF447AF6A
:101590002068011D21600068290501D506701BE740
:1015A000290701D5068017E7A90703D5F117C0E978
:1015B000006111E706600FE745F0400023464FF059
:1015C00008026060A80716D41EE040F60E0125EA66
:1015D0000100606016E045F0400023464FF00A022B
:1015E0006060A80707D40FE045F040006060A807DE
:1015F00008D5234610220D996FF00100AFF300804B
:1016000081E007E0102223460D996FF00100FFF7FB
:10161000D5F878E04FF0000963284F46C8464B469E
:10162000CB4602D05B2807D039E02079C00601D430
:101630000120A060012732E06269D4F80CB00B9859
:10164000012190475E2807D14FF0010949466269A0
:10165000D4F80CB00B989047216939B900210A469B
:1016600003AB43F82120491C0829FADBD8B32169D0
:1016700049B308F1010862690B98012190475D2880
:10168000F4D1B9F1000F09D0002003A951F82020AE
:10169000D24341F82020401C0828F7DB03AB206927
:1016A000002820794FEA40701ED05B462246CDF8D4
:1016B0000080CDE901970D9900286FF0010020DA34
:1016C000AFF300801FE0C11703AA00EBD1614B11FB
:1016D00021F01F0102EB8302411A136801208840A8
:1016E00003431360C7E719E00D99224600286FF005
:1016F0000100009702DAAFF3008004E0AFF300804E
:1017000001E0AFF3008000280ADA401C06D10C98F3
:1017100020B14FF0FF300FB0BDE8F08F5046FAE730
:10172000E90701D10AF1010A064400200C9053E6B2
:10173000CCCCCC0C007B00F08000704770B5164616
:101740000C46054600F040F8036893F801010128B3
:1017500006D0FF2C0FD8185D68B101202C7070BD29
:10176000D3F807013246214603F207130344284603
:10177000BDE8704018474FF0FF3070BD754600F06F
:10178000EBF8AE4605006946534620F00700854653
:1017900018B020B5FEF71EFEBDE820404FF0000651
:1017A0004FF000074FF000084FF0000B21F0070149
:1017B000AC46ACE8C009ACE8C009ACE8C009ACE88C
:1017C000C0098D467047000010B500F005F8001DF7
:1017D00010BD00BF856000000048704760390120DF
:1017E0002DE9F0411F46044603260168072A01F44B
:1017F000006004DB08B116A505E016A503E008B1FA
:1018000015A500E015A521F010002060A069C01EFC
:10181000A0610FB1401EA0612046FEF717FE4FB138
:10182000D4E9012138469047206A401C2062C01C40
:10183000206206E0206AFAE7D4E9012115F8010BDD
:101840009047761EF8D22046FEF716FEBDE8F081DE
:101850004E414E006E616E00494E4600696E660054
:101860002DE9F047814616468AB0354878440DC8C0
:101870008DE80D0032487844801C03AC0DC884E824
:101880000D0041F69B300844372190FBF1F290FBAC
:10189000F1F5A5F1800501FB12041B3C02D5644261
:1018A000012000E00020DFF898A080460027FA44DD
:1018B000AAF1BE0A0EE0E0070AD03246684607EBFE
:1018C000470101230AEB810100F01BFB8DE80700B3
:1018D00064107F1C002CEED1194F7F44AE3F19E0FD
:1018E000E80715D007EB04100DF1180A90E80E0078
:1018F0008AE80E00C068F04201D19819089032467B
:10190000012306A903A800F0FCFA03AB83E8070053
:101910006D10641C002DE3D14FF00103324669467F
:10192000B8F1000F03A802D000F0D6FA01E000F0F1
:10193000E8FAC9E90001C9F808200AB0BDE8F08753
:101940006C69000010B50446AFF300802046BDE886
:101950001040FEF7C8BC0000004870474039012025
:101960004FF0013C50F8042B51F8043B9A4221D12E
:10197000A2EB0C03934313EACC1317D150F8042BBA
:1019800051F8043B9A4215D1A2EB0C03934313EA9E
:10199000CC130BD150F8042B51F8043B9A4209D1D7
:1019A000A2EB0C03934313EACC13DBD04FF00000FF
:1019B000704700BFD01A01BAB1FA81F101F01801E5
:1019C00022FA01F0CB40C1F12001DBB2C0B2C01A53
:1019D0002CFA01F3D11A914311EAC311E6D17047F1
:1019E0005FEA400C08BF91F0000F4FEA8C234FEAEA
:1019F000C12243EA51514FEA1C5018BF00F5F04094
:101A00004FEA300018BF41F000415FEA6C5C00F023
:101A10002980BCF1FF3F08BF40F080407047130CA5
:101A200006BF12044FF0100C4FF0000C130E04BF51
:101A300012020CF1080C130F04BF12010CF1040C7C
:101A4000930F04BF92000CF1020CD30F04BF52009D
:101A50000CF1010C11464FF00002A0F11F00A0EBA9
:101A60000C00704711F0004F08BF704731F0004183
:101A70003FF4D5AF0B0C06BF09044FF0100C4FF02C
:101A8000000C0B0E04BF09020CF1080C0B0F04BF75
:101A900009010CF1040C8B0F04BF89000CF1020C3E
:101AA000CB0F04BF49000CF1010CCCF12003A0EBDB
:101AB0000C0022FA03F302FA0CF241EA030100F1EE
:101AC0000100704720F07F4C80EA030023F07F473D
:101AD000ACEB070303F57C5300F0004003F1FF0378
:101AE0002DE980494FEA154B09B44FEA144325EA22
:101AF0000B4E24EA03480FF2042606EB132749088D
:101B00003E785FEA320203FB0667C7F5000707FB72
:101B100006F64FEA54374FEAD64606F1020607FBAF
:101B2000066CCCF1005C4FEA1C472CEA074C07FB23
:101B300006F40CFB06F504EB15464FEA961634BF87
:101B400000204FF000404FEAD13706FB07FC4FEA78
:101B50001C4C0CFB0BF7D21B03FB0CF761EB0701D2
:101B60000CFB0EF7B0EB074072EB17420CFB08F7CB
:101B700034BFA2EB0742B2EB074261EB17414FEAD9
:101B80000C444FEA910706FB07FC4FEA1C4C0CFB88
:101B90000BF7B0EBC74072EB573203FB0CF734BFC7
:101BA000A2EBC742B2EBC74261EB57310CFB0EF719
:101BB000B0EBC70072EB57720CFB08F734BFA2EB17
:101BC000C702B2EBC70261EB5771039F4FEA816115
:101BD00041EA921104EBCC044FEAD1374FEA82621A
:101BE00006FB07FC42EA90124FEA80604FEA1C4C69
:101BF0000CFB0BF7D21B03FB0CF761EB07010CFB93
:101C00000EF7B0EB074072EB17420CFB08F734BF3E
:101C1000A2EB0742B2EB074261EB17414FEA8C554A
:101C20004FEA910704EB9C2406FB07FC4FEA1C4C8F
:101C30000CFB0BF7B0EBC74072EB573203FB0CF712
:101C400034BFA2EBC742B2EBC74261EB57310CFB8A
:101C50000EF7B0EBC70072EB57720CFB08F734BFFE
:101C6000A2EBC702B2EBC70261EB577115EB4C2533
:101C70004FEA816141EA92114FEA82624FEAD1371D
:101C800042EA901206FB07FC44F100044FEA806030
:101C90004FEA1C4C0CFB0BF7D21B03FB0CF761EB60
:101CA00007010CFB0EF7B0EB074072EB17420CFB81
:101CB00008F734BFA2EB0742B2EB074261EB1741D2
:101CC00015EB1C154FEA813141EA92414FEA82320D
:101CD00042EA90424FEA80304FEA0C7644F1000429
:101CE00048EA03434EEA0B484FF0000EB2EB080CF3
:101CF00071EB030724BF624639464EEB0E0E4FF0E0
:101D0000000B0018524149414BEB0B0BB2EB080C96
:101D100071EB03077BF1000B24BF624639464EEBA3
:101D20000E0E4FF0000B0018524149414BEB0B0BCC
:101D3000B2EB080C71EB03077BF1000B24BF62468A
:101D400039464EEB0E0E51EA020718BF46F0010667
:101D500016EB0E7655F1000254F1000103D5BDE8F3
:101D60008901BDE80088BDE88901BDE80048B619D1
:101D7000524141EB0101A3F10103704780807F7E56
:101D80007D7C7B7A797877767675747372717170F1
:101D90006F6E6E6D6C6C6B6A6A69686867666665A3
:101DA0006464636362616160605F5F5E5E5D5D5C31
:101DB0005C5B5B5A5A5959585857575656555555A2
:101DC0005454535352525251515050504F4F4F4E02
:101DD0004E4D4D4D4C4C4C4B4B4B4A4A4A49494950
:101DE0004848484747474746464645454544444492
:101DF000444343434342424242414141002B9C46BB
:101E000030D477002BD01CB54FEA370703B44FF01E
:101E100010004FF01001BAF1000F06D0BCF1000F16
:101E2000DCBF40F0080040F008014FF000000FBC9C
:101E3000BDE810400BF1010BBBF1010F08BF5FEAD9
:101E4000170722BF12F1010211F101014FF0004109
:101E500043F1000300F0004043EA00007047F9D36B
:101E60005708D0E746EA064613F1400F4FEA1646F8
:101E70001FDD13F1200FDFBF16430A460021203378
:101E80005B42BED0C3F1200746EA064602FA07F7D6
:101E90004FEA164646EA0706C3F1200722FA03F284
:101EA00001FA07F721FA03F14FF0000342EA0702B3
:101EB000A7E746EA020646EA06464FEA164646EA1B
:101EC0000106BCBF46EA0646360C4FF000034FF051
:101ED00000024FF0000194E72DE9804C9A469346AA
:101EE00070B491E8380007C831EA400C48BF34EAC2
:101EF000430C03D5FFF7E6FDFFF780FFF0BCBDE81C
:101F0000008C2DE9804C9A46934670B491E83800D5
:101F100007C810F0804F08BF13F0804F03D100F0C6
:101F200005F8FFF76BFFF0BCBDE8008C20F07F47A1
:101F300080EA030023F07F4C07EB0C03A3F57C53EE
:101F400000F00040A3F1FE0392F0000F00F0B38018
:101F500095F0000F00F077802DE901494FEA11401C
:101F60004FEA144621EA004800FB06FC24EA064733
:101F700008FB06F607FB08F800FB07F718EB064816
:101F80004CEB164C4FEA124B18EB07484FEA15463C
:101F90004CEB174022EA0B4E0BFB06FC25EA0647EA
:101FA0000EFB06F607FB0EFE0BFB07F71EEB064EBD
:101FB0004CEB164C4FF000061EEB074E4CEB174B4C
:101FC00018EB0B0840F1000018EB0E0B58EB000863
:101FD00040F100008F1A4FF000013CBFC943661B5F
:101FE00014BFB5EB040C00213CBFC943F61B4FEAFC
:101FF00017444EEA8E0E27EA04454FEA1C4704FBBD
:1020000007622CEA074C05FB07F70CFB05F604FBFF
:102010000CFC16EB074642EB174216EB0C4642EB64
:102020001C421BEB060658EB0202414146EA9E06A3
:1020300001D5BDE80189B619524141EB0101A3F177
:102040000103BDE801894FEA14454FEA114724EA2C
:10205000054621EA074C05FB07F406FB07F70CFBD6
:1020600006F105FB0CFC11EB074144EB17444FEA6A
:10207000124711EB0C4144EB1C4422EA074C05FBD0
:1020800007F206FB07F70CFB06F605FB0CFC16EB4C
:10209000074642EB174216EB0C4642EB1C456A180A
:1020A00054F1000148BF7047B619524141EB01019C
:1020B000A3F10103704795F0000F37D04FEA1142AA
:1020C0004FEA144721EA024624EA074C02FB07F1D3
:1020D00006FB07F70CFB06F402FB0CFC14EB0744B1
:1020E00041EB17414FEA154714EB0C4441EB1C41FF
:1020F00025EA074C02FB07F506FB07F70CFB06F683
:1021000002FB0CFC16EB074645EB174516EB0C469D
:1021100045EB1C42121951F1000148BF7047B61936
:10212000524141EB0101A3F1010370474FEA14450D
:102130004FEA114724EA054621EA074C05FB07F15F
:1021400006FB07F70CFB06F24FF0000605FB0CFC44
:1021500012EB074241EB174112EB0C4251EB1C41D1
:1021600048BF7047921841EB0101A3F1010370478A
:10217000FEE7704704F0F8B92DE9F0414FF0E02890
:102180000024D8F814700E4A0E4BD8F81850126874
:10219000B2FBF3F6464304F02DFC41468869A842A1
:1021A000FCD002D2A5EB000202E0A7EB00022A4419
:1021B00014440546B442F1D3BDE8F04105F054BAE9
:1021C000FC00002040420F0010B5012000F09CF8F8
:1021D000012808D10A4800220121006804F0AAFC65
:1021E000012000F08BF807480068002807D0064956
:1021F0004FF080500860BFF34F8FBFF36F8F10BD5B
:10220000480000208808002004ED00E010B50420FC
:1022100000F07AF8012808D10A480022022100685B
:1022200004F088FC042000F069F8074840680028A2
:1022300007D006494FF080500860BFF34F8FBFF3BF
:102240006F8F10BD480000208808002004ED00E0DA
:1022500010B5082000F058F8012808D10A480022DB
:102260000421006804F066FC082000F047F80748E5
:102270008068002807D006494FF080500860BFF3FF
:102280004F8FBFF36F8F10BD4800002088080020DB
:1022900004ED00E010B5102000F036F8012808D158
:1022A0000A4800220821006804F044FC102000F0D5
:1022B00025F80748C068002807D006494FF080502D
:1022C0000860BFF34F8FBFF36F8F10BD4800002031
:1022D0008808002004ED00E010B5402000F014F85C
:1022E000002807D0044901204860BDE81040402084
:1022F00000F004B810BD000060080020014908602B
:1023000070470000143C0140034A01460020126857
:102310000A4200D001207047143C014030B51A4AEF
:102320008379016853B313688B431360111D0B68E5
:102330000468A3430B60017911440B6804682343CC
:102340000B60114B083319680468A14319601C1D08
:1023500021680568A94321604179102905D01144FD
:102360000A68006802430A6030BD196802681143B8
:102370001960216800680143216030BD0079104474
:1023800002688A43026030BD003C01400149086098
:10239000704700000C3C024070B50646002529B18C
:1023A000012927D0022928D04FF4407500F078F891
:1023B00009281ED1124C206820F44070206020684B
:1023C00028432060206820F0F8002060206846F054
:1023D000020108432060206840F48030206000F053
:1023E0005FF8216821F002012160216821F0F801E5
:1023F000216070BD4FF48075D8E74FF40075D5E7C4
:10240000103C02400D4909200A68D20301D5012081
:1024100070470A68D20601D5062070470A68D205BF
:1024200001D5022070470A6812F0EF0F01D0072093
:10243000704709688907FBD5082070470C3C0240AB
:1024400070B50D46064600F02BF8092813D10A4C4A
:10245000206820F440702060206840F40070206004
:10246000206840F001002060356000F019F8216814
:1024700021F00101216070BD103C02400548006858
:10248000002805DA034804490C380160034901605B
:1024900070470000103C024023016745AB89EFCD37
:1024A00008B509208DF80000FFF7ACFF8DF800009B
:1024B0009DF800000128F7D09DF8000008BDF0B598
:1024C000002201274FF0030C0B6807FA02F52B409E
:1024D000AB422CD1066853000CFA03F4A643066005
:1024E0000E79D0F800E09E4046EA0E0606600E79AE
:1024F000012E01D0022E12D18668A64386604E7945
:10250000D0F808E09E4046EA0E0686604668AE4374
:10251000466045688E799640B6B235434560C568D9
:10252000A543C560CC799C40C3681C43C460521C61
:10253000102AC9D3F0BD4B07DB0E9A40C90810B56D
:1025400000EB8100016A0F249C40A1430162016AF3
:102550001143016210BD4183704701837047000041
:10256000EFF3088410A0FDF74FFF14A02168FDF7DA
:102570004BFF16A06168FDF747FF18A0A168FDF7A3
:1025800043FF1AA0E168FDF73FFF1CA02169FDF79A
:102590003BFF61691DA0491EFDF736FFA1691FA021
:1025A000491EFDF731FFFEE7486172644661756CB4
:1025B000745F48616E6465720D0A00005B52305DA5
:1025C0003A3078253038580D0A0000005B52315DF2
:1025D0003A3078253038580D0A0000005B52325DE1
:1025E0003A3078253038580D0A0000005B52335DD0
:1025F0003A3078253038580D0A0000005B523132ED
:102600005D3A3078253038580D0A00005B4C525D39
:102610003A3078253038580D0A0000005B50435D91
:102620003A3078253038580D0A00000070B5012086
:1026300003F062F90A4D0120C5F8BC02094EC6F844
:10264000A802052005F52F7506F52A76FFF794FDFB
:10265000002434600520FFF78FFD2C6070BD000062
:10266000008040420080414270B5012003F044F9EF
:1026700009480124C0F8BC42084D0020C5F8A80252
:10268000052005F52A75FFF777FD2C60BDE8704041
:102690000520FFF771BD00000080404200804142EC
:1026A00010B5002003F028F9074C0120C4F8BC0243
:1026B000052004F52F74FFF75FFD00202060BDE8C2
:1026C00010400520FFF758BD008040422DE9FC4135
:1026D0000121202000F012FA0121102000F00EFA52
:1026E00001208DF8040000218DF8061003218DF8DB
:1026F00005100D4E4FF4C0658DF807000095694632
:102700003046FFF7DCFE094F2C016946384600943D
:10271000FFF7D5FE29463046FFF71FFF2146384612
:10272000FFF71BFFBDE8FC810014024000100240CF
:10273000FEE7704730B50F23C27801780125FAB162
:10274000144A126801F1E02102F4E062C2F5E0628D
:10275000C2F30722C2F10404D3404278A240847835
:102760001C401443220181F80024007800F01F016E
:102770008D404009800000F1E020C0F8005130BDDC
:1027800001F01F0085404809800000F1E020C0F8FA
:10279000805130BD0CED00E0024908430249086059
:1027A000704700000000FA050CED00E070B5002550
:1027B000002105F1B00000F094F90021084600F076
:1027C00090F90021102000F08CF900240121002054
:1027D00000F087F9641CE4B2802CF7D36D1CEDB2D5
:1027E000082DE5D370BD10B500218D2000F079F9DA
:1027F0000021102000F075F90021BDE81040AE2046
:1028000000F06FB910B500218D2000F06AF90021A9
:10281000142000F066F90021BDE81040AF2000F060
:1028200060B92DE9F04717460E4681460025DDF8D0
:10283000208011E03146484600F0B6F84C4607E0EB
:1028400018F8050001216D1C00F04BF9641CE4B27E
:10285000BC42F5D3761CF6B2082EEBD3BDE8F08768
:102860002DE9F0410121022000F048F90121082062
:1028700000F044F9474C0125E80325712060A5715B
:10288000032767710026E67121464348FFF717FECC
:102890002571A8022060A5716771E67121463F4845
:1028A000FFF70DFE3E48C0F8BC523E48C0F8A852A3
:1028B000C820FFF75FFC0021AE2000F012F90021D4
:1028C000084600F00EF90021102000F00AF900215E
:1028D000402000F006F90021B02000F002F90021AC
:1028E000812000F0FEF80021FF2000F0FAF800211E
:1028F000A12000F0F6F80021A62000F0F2F8002157
:10290000A82000F0EEF800213F2000F0EAF80021B6
:10291000C82000F0E6F80021D32000F0E2F8002102
:10292000084600F0DEF80021D52000F0DAF800219A
:10293000802000F0D6F80021D82000F0D2F8002145
:10294000052000F0CEF80021D92000F0CAF80021BF
:10295000F12000F0C6F80021DA2000F0C2F80021D2
:10296000122000F0BEF80021DB2000F0BAF80021B0
:10297000302000F0B6F800218D2000F0B2F80021E0
:10298000142000F0AEF8BDE8F0410021AF2000F0C7
:10299000A8B800001001002000040240000C024012
:1029A000008040420080414210B50A4604460021A2
:1029B00002F1B00000F095F8102040EA1410002158
:1029C00000F08FF804F00F00BDE81040002100F087
:1029D00088B800002DE9F04115460E460746FFF77E
:1029E000E3FF0F48002400EB85150121285D00F06E
:1029F00078F8641CE4B2102CF7D3761CF1B2384698
:102A0000FFF7D2FF00242819012190F8200000F0E0
:102A100068F8641CE4B2102CF5D3BDE8F081000026
:102A2000180100202DE9F041203A00240F4680468D
:102A3000D5B27F2803D900208F1C8046FFB2102B0F
:102A4000394610D0FFF7B0FF164905EB450001EB02
:102A500040050121285D00F044F8641CE4B2062C16
:102A6000F7D3BDE8F081FFF79FFF0F4E04EB051091
:102A70000121305C00F035F8641CE4B2082CF5D379
:102A80007F1CF9B24046FFF78FFF002404EB0510CE
:102A900030440121007A00F024F8641CE4B2082CD0
:102AA000F4D3DEE7D6780008FE7A00082DE9F0417D
:102AB000984617460E46044600250DE0434631462B
:102AC0002046FFF7AFFF0834E4B2782C02D9002487
:102AD000B61CF6B26D1CEDB27A5D002AEED1BDE8EF
:102AE000F081C0B209B100F0E0BE00F0C7BE000046
:102AF000014908627047000000000E42044A0029A4
:102B0000116801D0014300E081431160704700006B
:102B100030380240044A0029116801D0014300E026
:102B2000814311607047000040380240044A002988
:102B3000116801D0014300E081431160704700003B
:102B40004438024070B5204B1968204C11F00C013C
:102B500004D06610042903D0082903D004601BE0C8
:102B6000066019E0184A121F1168C1F380551168F8
:102B700001F03F0115B1B6FBF1F101E0B4FBF1F159
:102B800014681268C4F388146143C2F30142521CF2
:102B90005200B1FBF2F1016019680F2202EA111133
:102BA0000B4A545C0168E14041601C68072505EA56
:102BB0009424145D21FA04F484601B6805EA5333FD
:102BC000D25CD140C16070BD083802400024F400DE
:102BD000C808002002460020510901290BD0022913
:102BE0000CD00849096802F01F02012393400B42F0
:102BF00000D00120704703497439F3E70149091FE8
:102C0000F0E7000074380240014908607047000096
:102C1000800E474201490860704700003C0E474261
:102C2000C0F30121032907D1074B1968074A21F492
:102C3000F81102400A431A60034968310A68C0F378
:102C40000B0002430A60704708380240FFFCFF0F88
:102C5000010901EB810100F00F0000EB4100C0B25F
:102C60007047002103E0491C0A38C9B2C0B20A28E3
:102C7000F9D2090740EA116070470000C0F30F1055
:102C800040F08000C1430348026802F08002114313
:102C9000016070470C28004008B50D4900200090E5
:102CA0000868400612D44FF0FF3008608B130868A4
:102CB000009A00F04000521C00929A4201D0002875
:102CC000F5D00868400601D4002008BD012008BDE9
:102CD0000C2800400248016821F080010160704723
:102CE0000C280040020010B50F480C4601680F4840
:102CF00001EA00014FEA1140E070C1F30423637060
:102D000001F03F03A370C1F3423121700AD1FFF7F4
:102D10009FFFE0706078FFF79BFF6070A078FFF77F
:102D200097FFA07010BD0000042800403FFFFF0087
:102D30000B4A0021126802F00403094A383A12686B
:102D400003EAD03302401A43064B1B6803EA101013
:102D500003D00004000C00D0012108467047000099
:102D6000402800400C280040020010B510480C46D6
:102D70000168104801EA0001C1F305402070C1F369
:102D80000623637001F07F03A3704FF0400303EA52
:102D90001141E1700AD1FFF75BFF20706078FFF707
:102DA00057FF6070A078FFF753FFA07010BD0000C0
:102DB000002800407F7F7F0030B50E4DCA222A6078
:102DC00053222A600B4C0B4B1C3C1C33002920F077
:102DD0000402216800F0040004D011432160196846
:102DE000014303E091432160196881431960FF208A
:102DF000286030BD2428004070B5124D04460026DE
:102E0000CA20286053202860FFF746FFA8B10D486C
:102E10001C38016821F040010160016822681143FB
:102E200001600848A168143801600168A28841EA7D
:102E300002410160FFF74EFF0126FF202860304667
:102E400070BD00002428004008B5034901EB800054
:102E50000090006808BD00005028004070B50C4686
:102E60000026010060780FD0FFF7F2FEA078FFF790
:102E7000EFFEA078E17840EA014560782178000211
:102E800040EA4130054315E0C10603D520F01000AB
:102E90000A306070E078FFF7E4FE05046078FFF721
:102EA000E0FE45EA0025A078FFF7DBFE0543207829
:102EB00045EA40350D4CCA20206053202060FFF7C2
:102EC000EBFE78B10A480540084820380560FFF756
:102ED00001FF06481C380068800602D400F08EF816
:102EE00000B10126FF202060304670BD242800403C
:102EF0003FFFFF002DE9F0410C460026234F010063
:102F00002078396832464FEA416104D0002930DA2E
:102F1000FFF79EFE2EE0002900DBE270FFF7A1FE26
:102F200005046078FFF79DFE45EA0025A078FFF7CD
:102F300098FE0543E07845EA0045144CCA201C344D
:102F4000206053202060FFF7A7FE68B110480540BD
:102F50000E4808380560FFF7BDFE3868800602D4C9
:102F600000F04CF800B10126FF2020603046BDE89B
:102F7000F081E270A078217840EA01456078E1783C
:102F8000000240EA01400543D7E70000082800405E
:102F90007F7F7F000549CA220A6053220A60034AE4
:102FA000103A1060FF20086070470000242800409D
:102FB00038B500204FF4804400902046FFF7B8FE5B
:102FC00001280BD10B486A460121006803F0B2FDCD
:102FD0002046FFF753FE2002FFF790F900980028E3
:102FE00007D005494FF080500860BFF34F8FBFF303
:102FF0006F8F38BD5800002004ED00E018B50020A8
:10300000104B0090CA201860532018600D491839E1
:10301000086820F0A00008604FF400340868009AA7
:1030200000F02000521C0092A24201D00028F5D0EE
:103030000868800601D5012000E00020FF2119600A
:1030400018BD000024280040084ACA2111605321FD
:10305000116006491C390B6823F007030B600B68ED
:1030600003430B60FF2010607047000024280040DD
:1030700018B50021134B0091CA2119605321196022
:1030800010491C390028086803D040F480600860AB
:1030900014E020F4806008600A4918398C1308682D
:1030A000009A00F00400521C0092A24201D00028B5
:1030B000F5D00868400701D4002000E00120FF217E
:1030C000196018BD2428004008B5034A02EB8000AF
:1030D0000090016008BD00005028004010B58A072C
:1030E00021F003040849120F21440F23D1F80848A6
:1030F00093409C43C1F80848D1F8083890400343F6
:10310000C1F8083810BD0000003001400CB50022A5
:10311000274900920192086840F4803008604FF41B
:10312000A043086800F4003001900098401C009013
:10313000019810B900989842F3D10868800334D5FB
:10314000012001901A484030026842F0805202602B
:103150001848026842F4404202601548083002688C
:103160000260026842F400420260026842F4A05227
:103170000260031F104A1A600A6842F080720A60F7
:103180000A689201FCD50D4940F205720A60016897
:1031900021F003010160016841F002010160016852
:1031A000C1F381010229FAD10CBD01920CBD0000CE
:1031B000003802400070004008544007003C0240C4
:1031C00010B5502080F31188BFF34F8FBFF36F8F7E
:1031D00004F018F918B104494FF08050086000203D
:1031E00080F3118810BD000004ED00E0124810B516
:1031F000016841F4700101601048016841F001016B
:1032000001600E4A00210832116002680C4B1A401E
:103210000260031D0B4A1A60026822F480220260D9
:1032200006480C300160FFF771FF03494FF0006062
:103230008039086010BD000088ED00E000380240D1
:10324000FFFFF6FE1030002410B50E4C0121204681
:1032500000F029F8012814D10B4A116990688142C5
:1032600001D0906806E031B19068814203D101201D
:10327000D060002010612046BDE81040012100F020
:1032800005B810BD0004004060080020C943018259
:1032900070470029018802D041F0010101E021F0CE
:1032A00001010180704702460020138A92890B4277
:1032B00002EA010202D0002A00D001207047002A51
:1032C000828901D00A4300E08A438281704700006E
:1032D00030B50288164C174DA0420DD0A8420BD035
:1032E000B0F1804F08D0144B984205D0134B984250
:1032F00002D0134B984203D122F070034A881A433C
:10330000104B984206D0104B984203D022F44073E1
:103310000A891A4302804A68C2620A880285A0426A
:1033200001D0A84201D1897A01860121818230BD74
:10333000000001400004014000040040000800407B
:10334000000C0040001000400014004070B5012146
:103350000220FFF7DFFB114809210024416042F2FF
:10336000CF01018004810E4D448001462846FFF7BD
:10337000AFFF012211462846FFF7A1FF09491D2092
:10338000012208704C708A70CA700846FFF7D2F9A3
:103390002846BDE870400121FFF77BBF8C09002063
:1033A000000400407408002070B5154D40F2255609
:1033B0003146284600F09DF8002820D0284600F02D
:1033C00025F9114CC2B20F4920680A54401C2060F4
:1033D000232A01D040280CD30C4800231A4609495F
:1033E000006803F0DFFD40210648FDF74AFB00209E
:1033F000206031462846BDE8704000F063B870BDDB
:1034000000100140A4090020AC0800203C0000206E
:1034100070B50F4C40F225552946204600F069F85A
:10342000012814D1204600F0F1F8C3B209484370D6
:103430008168402905D2826807491144521C826084
:103440000B7029462046BDE8704000F03BB870BDC7
:1034500000440040600800204C09002070B5154D64
:1034600040F225563146284600F043F8002820D087
:10347000284600F0CBF8114CC2B20F4920680A541C
:10348000401C2060232A01D040280CD30C48002384
:103490001A460949006803F085FD40210648FDF7FA
:1034A000F0FA0020206031462846BDE8704000F068
:1034B00009B870BD00480040A4090020AC080020F5
:1034C0003C0000200A0A01219140C9430180704755
:1034D0000029818902D041F4005101E021F400511A
:1034E000818170470246002012880A4200D00120E4
:1034F000704770B501F01F0501260024C1F3421387
:1035000006FA05F2012B0FD0022B0FD0838A4FEA67
:1035100011210088134206FA01F600EA060001D0E4
:1035200000B10124204670BD8389F0E7038AEEE7ED
:1035300010B5C1F3421301F01F040121A140012B7A
:1035400007D0022B07D01430002A026805D00A43A6
:1035500004E00C30F8E71030F6E78A43026010BD53
:103560007FB50446008A0D46C98820F440500143C7
:103570002182A08941F20C618843A9882A891143DC
:103580006A8902431143A181A08A20F44071A8896D
:103590000843A0826846FFF7D5FA1A48844202D051
:1035A0001948844201D1039800E00298A1890904D6
:1035B00000EBC00101EB0010296801D5490000E0D3
:1035C0008900B0FBF1F06422B0FBF2F109010B09B4
:1035D0006FF018056B4300EB8300A3891D044FF0C7
:1035E000320306D503EBC000B0FBF2F000F0070099
:1035F00005E003EB0010B0FBF2F000F00F00084311
:1036000020817FBD00100140001401408088C0F37C
:1036100008007047C1F3080181807047FEE7000091
:10362000F0B50646012187B00846FFF767FA012189
:103630001020FFF77BFA254D072209212846FEF7C7
:103640007AFF07220A212846FEF775FF02218DF82E
:1036500014108DF815104FF4C060002404908DF8FC
:10366000164001278DF8177004A92846FEF727FF9A
:10367000ADF80440ADF80640ADF80840ADF80C4098
:103680000C20134CADF80A00009669462046FFF75F
:1036900067FF01212046FFF71BFF012240F2255161
:1036A0002046FFF745FF25208DF8180005218DF8ED
:1036B00019108DF81A108DF81B7006A8FFF73AF84C
:1036C00001212046FFF704FF07B0F0BD00000240D3
:1036D000001001402DE9F041064601210846FFF7A0
:1036E0000DFA01214804FFF715FA1E480C250221A6
:1036F0000560017103214171002484711A4FC47166
:1037000001463846FEF7DBFE072202213846FEF767
:1037100012FF072203213846FEF70DFF13490E6002
:103720008C80CC800C818C81114C4D812046FFF720
:1037300017FF012240F225512046FFF7F9FE094903
:103740002620091F052208704A708A700120C8705F
:103750000846FEF7EFFF2046BDE8F0410121FFF7E4
:10376000B7BE0000B408002000000240E4090020B9
:103770000044004070B5054601218804FFF7CAF9EE
:1037800001210220FFF7BAF91E494FF440600024DE
:10379000086002200871032048711B4E8C71CC71A7
:1037A0003046FEF78CFE07220A213046FEF7C3FEA4
:1037B00007220B213046FEF7BEFE14490C200D6097
:1037C0008C80CC800C818C81114C48812046FFF785
:1037D000C7FE012240F225512046FFF7A9FE094904
:1037E00027200C39052208704A708A700120C870A1
:1037F0000846FEF79FFF2046BDE870400121FFF715
:1038000067BE0000BC08002000040240E40900205C
:10381000004800402DE9F0478146012002F06CF895
:10382000144D0026C5F8BC62134FC7F8A8620520E6
:10383000FEF7A2FC07244FF0010AA8460AFA04F09A
:10384000554610EA090F02D0C7F8A85201E0C7F8A0
:10385000A8620520FEF790FCC8F8BC520520FEF7D0
:103860008BFCC8F8BC620520FEF786FC641EE5D51B
:10387000BDE8F087008040420080414210B5044618
:10388000FEF7D4FE7820FFF7C5FFFEF709FF002002
:10389000FFF7C0FFFEF704FF2046FFF7BBFFFEF770
:1038A000FFFEBDE81040FEF7DFBE10B50446FEF790
:1038B000BDFE7820FFF7AEFFFEF7F2FE4020FFF7D7
:1038C000A9FFFEF7EDFE2046FFF7A4FFFEF7E8FE96
:1038D000BDE81040FEF7C8BE03B40198410000984F
:1038E00050EAC12018BF04204A0D18BF40F0010063
:1038F00040F2FF72B2EB515F08BF40F002000128B6
:1039000008BF052002B0704730380A2801D20120D4
:1039100070470020704770478CB0002004260627AF
:10392000554C0690079008904FF0FF390DF118089C
:10393000102509900122CDF8009000231146A06CBB
:1039400003F000F9C007F5D0032001F023FB4BA0E2
:1039500001F07AFA55A001F077FA8DF8046000239F
:10396000642201A9A06B03F06BFA59A106A8FCF729
:1039700057FD8DF8047020208DF8050002208DF889
:103980000600CDF808808DF80C500023642201A9B0
:10399000A06B03F055FA0146012802D04EA001F0B9
:1039A00053FA4FF6FF70ADF828000AA801F08EFC1C
:1039B00010F0FF0F2FD0012001F0ECFA55A106A85E
:1039C000FCF72EFD8DF8047024208DF805008DF88D
:1039D0000660CDF808808DF80C500023642201A900
:1039E000A06B03F02DFA0146012802D03AA001F0A5
:1039F0002BFA0221606D03F056F80221E06C03F00F
:103A000052F86420FEF7B6FB01F05CFD4FF47A70CB
:103A1000FEF7B0FB8EE7022001F0BCFABDF82810DB
:103A20003EA001F011FABDF8282040A106A8FCF73D
:103A3000F7FC1148BDF828203CA1DC30FCF7F0FC75
:103A40008DF804708DF805508DF80660CDF808806B
:103A50008DF80C500023642201A9A06B03F0F0F94B
:103A60000146012802D01CA001F0EEF90121606D91
:103A700003F019F80121C1E7000000200A3D3D3D97
:103A80003D3D3D3D3D3D3D3D3D3D3D3D3D3D3D3D66
:103A90003D3D3D3D3D3D3D3D3D3D3D3D3D3D3D3D56
:103AA0003D3D3D3D3D3D3D3D3D0D0A00C7EBBDABC0
:103AB000CAD6D6B8B7C5B5BDD6B8CEC6C4A3BFE9B9
:103AC000B4A5C3FEB8D0D3A6C7F80D0A0000000005
:103AD0004D6F642046706D005B6170705F74617340
:103AE0006B5F7274635D2078517565756553656EA3
:103AF00064206F6C656420737472696E67206572F0
:103B0000726F7220636F64652069732025640D0AEB
:103B1000000000004661696C656400002530346473
:103B2000BFBCC7DAB3C9B9A6210D0A002530346479
:103B300020417474656E640008B5194E4FF0FF356E
:103B40004FF4FA77009500230122FF21706D02F0F7
:103B5000F9FF0446C00706D001F064F93220FEF7F1
:103B600009FB01F057F9A00706D501F05BF93846CB
:103B7000FEF700FB01F04EF96007E3D501F052F9C2
:103B80003220FEF7F7FA01F045F93220FEF7F2FA9B
:103B900001F048F93220FEF7EDFA01F03BF9D1E7E8
:103BA000000000207CB5FEF791FD01F085FDFEF7D9
:103BB00057FEFEF7FBFD01F0E5FD01F00BF901F00A
:103BC00055FCFEF75BFCF320FEF7E0FB0020654CA4
:103BD0000CE0616863485C3001F092F9614862A1D1
:103BE0005C30FCF791FE28B16068401C6060606842
:103BF0006428EED36068206002F0C8FA012003F068
:103C00009FF82064012003F09BF8606400221421D7
:103C1000102003F0A7F8A06300224021052003F044
:103C2000A1F8E06302F032FFA06502F02FFFE0642C
:103C300002F02CFFA06402F029FF206502F026FFAD
:103C400060654AA0FCF7E0FB464805240C30CDE94E
:103C500000404FF4007500232A4651A1544803F058
:103C600091FB404800231030CDE900402A4651A185
:103C7000554803F087FB3B4800231430CDE9004052
:103C80002A4652A1554803F07DFB364800231C30DC
:103C9000CDE900402A4652A1554803F073FB314854
:103CA00000232430CDE900402A4652A1554803F0B4
:103CB00069FB2C4800232030CDE900402A4652A160
:103CC000554803F05FFB274800231830CDE900403A
:103CD0002A4652A1554803F055FB224800232830BC
:103CE000CDE900402A4652A1554803F04BFB1D4840
:103CF00000232C30CDE900402A4652A1554803F05C
:103D000041FB102354A202212620FEF7CFFE002201
:103D100002213620FEF75EFE012202214620FEF738
:103D200059FE10234DA204210020FEF7BFFE1023F0
:103D30004EA206214020FEF7B9FE1A22062150208D
:103D4000FEF748FE1B2206216020FEF743FE1C22E0
:103D500006217020FEF73EFEBDE87C40002002F008
:103D600029BC0000000000200A0000002D2D2D2D90
:103D70002D2D2D2D2D2D2D2D2D2D2D2D2DBBB6D3B6
:103D8000ADBDF8C8EBBFBCC7DABBFA2D2D2D2D2D6C
:103D90002D2D2D2D2D2D2D2D2D2D2D2D0A000000FD
:103DA0006170705F7461736B5F6F6C6564000000BD
:103DB000C14500086170705F7461736B5F6B6579FA
:103DC000626F617264000000713E00086170705F94
:103DD0007461736B5F6C6564000000007D420008D5
:103DE0006170705F7461736B5F726F6F740000005D
:103DF000814600086170705F7461736B5F617474F9
:103E000065000000193900086170705F7461736BA0
:103E10005F62656570000000393B00086170705F8B
:103E20007461736B5F72746300000000514B000893
:103E30006170705F7461736B5F6D6F640000000090
:103E4000114300086170705F7461736B5F73686F1A
:103E500077000000E94C00084B310000436F6465B7
:103E600020456E74657220524F4F540062790000F5
:103E700098B0CC480DF1240C00240EC88CE80E003C
:103E80000EC80DF1300C26468CE80E0007C80FABAB
:103E90000DF1500C83E807001294C3A0139405940D
:103EA00006940794089407C88CE807002546A346A3
:103EB00009230CAA14A9172003F0AEFC25B1012D8B
:103EC00009D0022D3CD135E001F04AFB4E2837D015
:103ED0000646012534E001F043FB07464E282FD06B
:103EE000B7422DD10146B3A000F0AEFFB548022580
:103EF0000121406D02F0D7FD432F06D02A2F11D0AB
:103F000009A80755641CE4B21AE0AFA000F09CFFBA
:103F1000002009AA59461154401CC0B20828FAD3FF
:103F20000024CBE7ABA000F08FFF09A901F804B093
:103F3000641EE8E701F014FB4E2801D100254E264F
:103F4000082CBBD19F4F4FF0040A00248DF800A02D
:103F5000234664226946B86B02F072FF09AAA0A149
:103F600012A8FCF75DFA12A99FA000F06DFF4FF0B8
:103F700006094FF010088DF800908DF8018003219C
:103F80008DF8021012A901918DF808800023642297
:103F90006946B86B02F054FF0146012802D095A093
:103FA00000F052FF09230FAA0CA9172003F02AFCE6
:103FB000082209A90FA8FCF7B9FC80B30221786D8B
:103FC00002F071FD0221F86C02F06DFD8DF800A089
:103FD000002364226946B86B02F032FF4FF0FF31D4
:103FE000386C03F0D9F892A105A8FCF719FA8DF8FE
:103FF000009018208DF8010005A88DF802A001900E
:104000008DF80880002364226946B86B02F018FF1F
:1040100000231A461946386C02F012FF4EE7FFE7FC
:104020008DF800A0002364226946B86B02F008FFF7
:1040300082A105A8FCF7F4F98DF8009020208DF8F6
:10404000010005A88DF802A001908DF808800023DA
:1040500064226946B86B02F0F3FE0146012802D0E3
:1040600064A000F0F1FE574F0421786D02F01BFDB3
:104070000121F86C02F017FD0121386D02F013FDEB
:104080004FF4FA6002F070FA04208DF8000000236B
:1040900064226946B86B02F0D3FE6BA105A8FCF759
:1040A000BFF98DF8009005A98DF8018001918DF878
:1040B00002B08DF80880CA46002364226946B86BB6
:1040C00002F0BEFE0146012802D04AA000F0BCFE6C
:1040D0004FF47A7002F048FA14216846FCF7D1FCDC
:1040E0005CA105A8FCF79CF98DF800A08DF8018073
:1040F000474602208DF808808DF80200DFF8C48062
:1041000005A80190002364226946D8F8380002F01F
:1041100097FE0146012802D036A000F095FE4FF42C
:10412000FA7002F021FA4EA105A8FCF779F98DF892
:1041300000A08DF801703846B94604218DF80210B0
:1041400005AF01978DF80800002364226946D8F86E
:10415000380002F075FE0146012802D025A000F0CB
:1041600073FE4FF4FA7002F0FFF940A105A8FCF7C6
:1041700057F98DF800A008218DF801108DF802A0E4
:1041800001978DF80890002364226946D8F838001A
:1041900002F056FE014601283FF4C3AE15A000F020
:1041A00053FE8BE694780008313233343536373895
:1041B000000000004B455920256320446F776E0DA9
:1041C0000A00000000000020C3DCC2EBC7E5300A93
:1041D00000000000C3DCC2EBCDCBCEBB0A00000068
:1041E00070773A2573000000496E7075742025734E
:1041F0000D0A00005B6170705F7461736B5F7274B5
:10420000635D2078517565756553656E64206F6CCC
:10421000656420737472696E67206572726F7220B4
:10422000636F64652069732025640D0A0000000037
:10423000436F6465204572726F722100537563632A
:1042400065737321000000004B322020416464201C
:1042500046706D004B33202046706D204E756D000A
:104260004B34202044656C20416C6C0055312F3359
:10427000204D6F642054696D6500000008B5DFF8BB
:1042800084A0214D214E4FF0FF394FF4C0674FF409
:10429000C0484FF4FA7BCDF8009000230122FF21A3
:1042A000DAF84C0002F04EFC0446C00712D0394642
:1042B0002846FEF750F941463046FEF74CF9642097
:1042C00002F052F939462846FEF747F94146304692
:1042D000FEF743F9A007DED539462846FEF73BF93D
:1042E000444641463046FEF736F9584602F03CF95E
:1042F00039462846FEF731F921463046FEF72DF9BA
:10430000C9E7000000000020001402400010024035
:104310009AB02022794902A8FCF779FB00270F9771
:1043200010971197129713974FF416501497FFF7A1
:1043300021FA734C7E1E0DF13C094FF00A084FF034
:10434000040A4FF0060B009600230122FF21206D86
:1043500002F0F8FB0546324602A9E06B02F080FE4F
:1043600002A968A000F070FDE8077DD066A102A850
:10437000FCF7CAFA002850D0A06902F0DDFA13A9B0
:1043800017A8CDE9000116AB15AA62A102A8FCF797
:10439000F7F915994046B1FBF0F208FB1212B1FB98
:1043A000F0F102EB0111564A3432D1701699B1FB8B
:1043B000F0F308FB1313B1FBF0F103EB01115170A3
:1043C0001799B1FBF0F308FB1313B1FBF0F103EB0A
:1043D000011191701399B1FBF0F300FB1313B1FBC2
:1043E000F8F003EB0010107011460120FEF736FDC7
:1043F000A06902F02BFA202102A8FCF742FB8DF8FD
:1044000028A0002364220AA9A06B02F019FD47A18D
:1044100047E04BA000F018FD5BE058A102A8FCF7B4
:1044200073FA002866D014A8009019AB18AA56A1F8
:1044300002A8FCF7A5F9324A402030324146D0703C
:104440001898B0FBF1F308FB1303B0FBF1F003EB9A
:10445000001010701998B0FBF1F308FB1303B0FBC8
:10446000F1F003EB001000E044E050701498B0FB52
:10447000F1F308FB1303B0FBF8F003EB00109070AE
:1044800011460120FEF736FD202102A8FCF7F9FABB
:104490008DF828A0002364220AA9A06B02F0D0FCAA
:1044A0003EA10FA8FBF7BCFF8DF828B08DF829704E
:1044B00003208DF82A001020CDF82C908DF83000C4
:1044C000002364220AA9A06B02F0BAFC014601286D
:1044D0009FD14FF47A7002F047F814210AA8FCF734
:1044E000D0FA0421606D02F0DEFA0121E06C02F0E6
:1044F000DAFA28E72EA000F0A7FC24E7B878000835
:104500000000002025730A004441544520534554BF
:104510000000000044415445205345542D323025BD
:10452000642D25642D25642D256423004D6F6420A2
:104530004461746520537563636573730000000004
:104540005B6170705F7461736B5F7274635D207820
:10455000517565756553656E64206F6C6564207375
:104560007472696E67206572726F7220636F646522
:104570002069732025640D0A0000000054494D4550
:10458000205345540000000054494D4520534554E4
:104590002D25642D25642D25642300004D6F642096
:1045A00054696D6520537563636573730000000083
:1045B000496E707574206572726F720D0A0000008A
:1045C000234C86B04FF0FF352A4601A9A06B02F0BC
:1045D00047FD0128F8D19DF80400092833D2DFE80F
:1045E00000F0320508320B320E182100FEF70AF9EE
:1045F000EAE7FEF7F8F8E7E7FEF7D8F8E4E79DF812
:104600000C309DF806109DF80500029AFEF74EFA50
:10461000DAE79DF80D209DF806109DF80500FEF7DD
:10462000D9F9D1E7049800909DF806109DF815007F
:104630009DF814200844C3B29DF805000244D2B28C
:10464000FEF7EFF8C0E703A000F0FEFBBCE70000B8
:10465000000000205B6170705F7461736B5F6F6C52
:1046600065645D206F6C6564206374726C20636F99
:10467000646520697320696E76616C69640D0A0057
:104680008CB00020EA4D0690079008904FF0060B82
:104690004FF0100A09904FF0FF34009400230122DC
:1046A000FF21286D02F04EFA0646009400230122F5
:1046B000FF21A86C02F046FA0446F007EBD0A007F1
:1046C00071D5032000F066FCDAA000F0BDFB0427E2
:1046D0008DF804700023642201A9A86B02F0B0FBDE
:1046E000E1A106A8FBF79CFE8DF804B020208DF810
:1046F000050002200DF118098DF80600CDF808908C
:104700008DF80CA0D84656460023642201A9A86B58
:1047100002F096FB0146012802D0D5A000F094FBE0
:104720000AA800F059FD10F0FF0F3CD1BDF8281089
:10473000DEA000F089FBBDF82800401C80B200F02C
:10474000A5FC10F0FF0F7DD0012000F023FCDDA1BF
:1047500006A8FBF765FE8DF8048030208DF8050073
:104760008DF80670CDF808908DF80C600023642257
:1047700001A9A86B02F064FB0146012802D0BCA08D
:1047800000F062FB0221686D02F08DF90221E86CF5
:1047900002F089F96420FDF7EDFC00F093FE4FF480
:1047A0007A70FDF7E7FC600763D5032000F0F2FBA9
:1047B000C6A000F049FB04268DF8046000236422A3
:1047C00001A9A86B02F03CFBCBA106A8FBF728FED1
:1047D0008DF804B020278DF8057002200DF118091E
:1047E0008DF80600CDF808908DF80CA0D84600236F
:1047F000642201A9A86B02F023FB0146012802D024
:104800009BA000F021FB0AA800F0E6FC10F0FF0FCF
:104810007ED0012000F0BEFBAAA106A8FBF700FE97
:104820008DF804808DF805708DF80660CDF808903D
:104830008DF80CA00023642201A9A86B02F000FBF4
:10484000014600E07CE0012802D089A000F0FCFADB
:104850000221686D02F027F90221E86C02F023F9C9
:104860006420FDF787FC00F02DFE4FF47A70FDF711
:1048700081FC20077FF50FAF032000F08BFB93A096
:1048800000F0E2FA4FF004088DF80480002364225F
:1048900001A9A86B02F0D4FA99A106A8FBF7C0FD04
:1048A0008DF804B04FF020098DF80590022006AF76
:1048B0008DF8060002978DF80CA05E465446002342
:1048C000642201A9A86B02F0BBFA0146012802D0BC
:1048D00067A000F0B9FA00F073FB10F0FF0F7CD076
:1048E000012000F057FB77A106A8FBF799FD8DF892
:1048F00004608DF805908DF8068002978DF80C40C5
:104900000023642201A9A86B02F09AFA014600E094
:104910003CE0012802D056A000F096FA0221686D12
:1049200002F0C1F80221E86C02F0BDF86420FDF746
:1049300021FC00F0C7FD4FF47A70FDF71BFCAAE6DE
:10494000022000F027FB70A000F07EFA73A106A8F9
:10495000FBF766FD8DF804808DF805608DF8067014
:10496000CDF808908DF80C600023642201A9A86B93
:1049700002F066FA0146012802D03DA000F064FA78
:104980000121686D02F08FF8012100E7022000F09C
:1049900001FBBDF8281045A000F056FABDF828200C
:1049A00061A106A8FBF73CFD8DF804808DF8057029
:1049B0008DF80660CDF808908DF80CA000236422D5
:1049C00001A9A86B02F03CFA0146012802D028A0F8
:1049D00000F03AFA0121686D00E003E002F063F8AC
:1049E00001213AE7022000F0D5FA52A000F02CFA9B
:1049F00054A106A8FBF714FD8DF804608DF805405E
:104A00008DF8068002978DF80C400023642201A9DE
:104A1000A86B02F015FA0146012802D014A000F09C
:104A200013FA0121686D02F03EF801217BE70000D6
:104A3000000000202D2D2D2D2D2D2D2DC7EBBDABD4
:104A4000CAD6D6B8B7C5B5BDD6B8CEC6C4A3BFE919
:104A5000B4A5C3FEB8D0D3A6C7F82D2D2D2D2D2D6E
:104A60002D2D0D0A000000004164642046706D0089
:104A70005B6170705F7461736B5F7274635D2078EB
:104A8000517565756553656E64206F6C6564207340
:104A90007472696E67206572726F7220636F6465ED
:104AA0002069732025640D0A00000000BBF1C8A135
:104AB000D6B8CEC6D7DCCAFDA3BA253034640D0AF9
:104AC000000000004661696C656400000A3D3D3DE0
:104AD0003D3D3D3D3D3D3D3D3D3D3D3D3D3D3D3D06
:104AE0003D3D3D3D3D3D3D3D3D3D3D3D3D3D3D3DF6
:104AF0003D3D3D3D3D0D0A0046706D204E756D00FB
:104B000044656C20416C6C00D7D4B6AFD7A2B2E13B
:104B1000D6B8CEC6B3C9B9A60D0A00004164642058
:104B200053756363657373004E756D3A2530346455
:104B300000000000C7E5BFD5D6B8CEC6B3C9B9A638
:104B40000D0A000044656C20537563636573730040
:104B500086B0304E316830A000F076F94FF0FF3764
:104B60000097002301220F21B06D01F0EBFFC00779
:104B7000F6D0284831A1DC30FBF7C6FE0028EFD084
:104B8000306864283DD2234901203431FEF7AAF869
:104B9000204901203031FEF7E7F81E4D30352C1D3D
:104BA000AB7820786A7829788DE80F00A37862784E
:104BB000E17824A0FBF728FC20780DF1080CAB78F5
:104BC0006A7829788CE80F00A1786078CDE9000137
:104BD00004F1A802E37826A1A2F18000FBF720FCF3
:104BE000316804F1280000F09BF910B1002030601A
:104BF0000AE008492AA05C3100F026F93068401C20
:104C0000F5E72AA000F020F902481E21DC30FBF76E
:104C100038FFA5E7000000202D2D417474656E64F7
:104C2000616E6365207265636F7264206E756D20BE
:104C300069732025642D2D0D0A00000041747465F0
:104C40006E640000203230253032782F25303278E3
:104C50002F25303278205765656B3A25782025302E
:104C600032783A253032783A253032780D0A000011
:104C70005B25735D203230253032782F2530327835
:104C80002F25303278205765656B3A2578202530FE
:104C900032783A253032783A253032780D0A0000E1
:104CA000696E707574202D2D2D2573005468652054
:104CB0007265636F726420686173207265616368F6
:104CC00065642031303020616E642063616E6E6FE8
:104CD0007420636F6E74696E75652077726974698C
:104CE0006E670D0A000000001F4C90B04FF0FF36B9
:104CF000002532466946E06B02F0B2F91BA1684616
:104D0000FBF702FEF0B1656013E0616816485C30A5
:104D100000F0F6F8144818A15C30FBF7F5FD58B127
:104D2000114A61685C3215A000F08EF86068401C82
:104D3000606060686428E8D3606878B913A000F008
:104D400083F80BE017A16846FBF7DEFD0028D0D002
:104D500000F0C0F815A000F077F825604021684603
:104D6000FBF78FFEC5E700000000002073686F7737
:104D700020616C6C000000000A0000007265636F27
:104D800072645B25645D20202573000054686572A1
:104D900065206973206E6F207265636F72640D0AFF
:104DA00000000000636C656172000000456D707466
:104DB0007920616C6C2064617461207265636F722C
:104DC0006473207375636365737366756C6C790DBA
:104DD0000A0000001CB501212020FDF78FFE4FF4D2
:104DE0008070009001208DF8040000248DF80640AA
:104DF00003218DF805108DF8070069460348FDF77B
:104E00005EFB0348C0F8A0421CBD00000014024035
:104E10000080424202490020C1F8A0027047000011
:104E20000080424202490120C1F8A0027047000000
:104E300000804242002203E010F8013B1A4492B283
:104E4000491EF9D2104670470FB44FF0FF3170B5CC
:104E5000084D05AC686C02F09FF921460498FBF7F9
:104E6000CDFA00231A461946686C01F0E9FF70BCC0
:104E70005DF814FB0000002070B508480568EFF3EA
:104E8000058407A0FFF7E0FF21460AA0FFF7DCFF3B
:104E90002946BDE870400BA0FFF7D6BF04ED00E047
:104EA000657863657074696F6E732063617463689D
:104EB0000D0A0000495053523D3078253038580DC6
:104EC0000A000000494353523D3078253038580DD0
:104ED0000A00000010B502212020FDF75DFA092824
:104EE00004D0BDE8104002A0FFF7AEBF10BD000027
:104EF0004572617365206572726F720D0A00000061
:104F0000064A10B502EB811101F14003002202E0D4
:104F100010C98450121D9942FAD310BD0000010837
:104F20002DE9F04107460D48002500EB811404F1FE
:104F300040060FE079592046FDF782FA092807D08C
:104F400007A0FFF781FFFFF7C5FF0120BDE8F08153
:104F5000241D2D1DB442EDD30020F7E70000010809
:104F6000666C617368207772697465207265636F1F
:104F70007264206661696C2C6E6F7720676F746F46
:104F800020657261736520736563746F72210D0A09
:104F90000000000010B5012804D0022804D0032826
:104FA00009D006E0054901E004491031102000F065
:104FB0006BFA002010BD01491039F7E7FE800008A8
:104FC0003EB517A04FF47A6407C88DE8070069461C
:104FD0000C2000F059FA154D02E00120FDF7CAF847
:104FE000E86808B9641EF8D101F048F9104908785A
:104FF0004FF0FF35EF2804D04878012801D00DA0EC
:1050000008E05CB1487A002807D0497A0FA0FFF782
:105010001BFF14A0FFF718FF28463EBD17A0F9E7B5
:10502000EF01FFFFFFFF0100030D001160080020EA
:105030004C09002066706D5F656D707479BCECB2D0
:10504000E9D3B2BCFEC1ACBDD30D0A00C7E5BFD5E4
:10505000D6B8CEC6A3BACAA7B0DC20253032580DC8
:105060000A000000C7EBB2BBD2AAB0B4D1B9D6B81F
:10507000CEC6C4A3BFE90D0A00000000C7E5BFD536
:10508000D6B8CEC63AB3ACCAB10D0A0030B585B0B9
:10509000EF218DF800100122FF2108238DF8012057
:1050A0008DF804108DF808308DF802108DF8051079
:1050B00031238DF803108DF809300021030A8DF893
:1050C0000A308DF80C208DF80B008DF80D108DF83E
:1050D00006203F208DF807108DF80E004FF47A64FB
:1050E00009210DF10600FFF7A5FE010A8DF80F104A
:1050F0008DF810006946112000F0C6F9154D02E048
:105100000120FDF737F8E86808B9641EF8D101F00E
:10511000B5F8114908784FF0FF35EF280AD04878E4
:10512000012807D00DA0FFF78FFE13A0FFF78CFE1C
:1051300016A00BE04CB1487A002804D0497A1AA096
:10514000FFF782FE284605B030BD1EA0FFF77CFEAB
:10515000F8E70000600800204C090020D7D4B6AF63
:10516000D7A2B2E1D6B8CEC63ACAFDBEDDB0FCD2F7
:10517000ECB3A3A3A10D0A00312EBCECB2E9D3B26B
:10518000BCFEC1ACBDD30D0A00000000322EBCEC49
:10519000B2E9CAC7B7F1D3D0B0B4D1B9D6B8CEC688
:1051A000C4A3BFE90D0A0000D7D4B6AFD7A2B2E1BD
:1051B000D6B8CEC6A3BACAA7B0DC20253032580D67
:1051C0000A000000D7D4B6AFD7A2B2E1D6B8CEC697
:1051D0003AB3ACCAB10D0A00FEB506461AA04FF4A8
:1051E0007A6407C88DE8070069460C2000F04CF986
:1051F000184D02E00120FCF7BDFFE86808B9641E05
:10520000F8D101F03BF8144801784FF0FF35EF2951
:1052100004D04178012901D010A007E054B1417AAF
:1052200051B1417A15A0FFF70FFE1CA0FFF70CFE4D
:105230002846FEBD1FA0F9E7C17A807A41EA002026
:1052400030800020FEBD0000EF01FFFFFFFF0100E6
:10525000031D0021600800204C09002066706D5F6E
:1052600069645F746F74616CC7EBBCECB2E9D3B274
:10527000BCFEC1ACBDD30D0A00000000BBF1C8A14B
:10528000D3D0D0A7D6B8CEC6D7DCCAFDA3BACAA79A
:10529000B0DC20253032580D0A000000C7EBB2BB4D
:1052A000D2AAB0B4D1B9D6B8CEC6C4A3BFE90D0A4C
:1052B00000000000BBF1C8A1D3D0D0A7D6B8CEC69D
:1052C000D7DCCAFD3AB3ACCAB10D0A0070B586B0DE
:1052D0000546EF208DF80000FF2001218DF8011018
:1052E0008DF804008DF805008DF8061008218DF862
:1052F00008108DF8020032218DF803008DF8091096
:10530000002050218DF807008DF80A1029884FF4ED
:105310007A64090A8DF80B1029788DF80C108DF835
:105320000D0007208DF80E0009210DF10600FFF792
:1053300081FD010A8DF80F108DF8100069461120CB
:1053400000F0A2F81D4E02E00120FCF713FFF06808
:1053500008B9641EF8D100F091FF194801784FF0A8
:10536000FF36EF290AD04178012907D015A0FFF7B1
:105370006BFD1BA0FFF768FD1EA008E034B1417A69
:1053800051B1417A22A0FFF75FFD02E026A0FFF7AE
:105390005BFD304606B070BD817B427B41EA022155
:1053A000A1F57F42FF3A06D0017BC07A41EA002096
:1053B00028800020EEE721A0E9E700006008002037
:1053C0004C090020D7D4B6AFD1E9D6A4D6B8CEC602
:1053D0003ACAFDBEDDB0FCD2ECB3A3A3A10D0A0016
:1053E000312EBCECB2E9D3B2BCFEC1ACBDD30D0AC8
:1053F00000000000322EBCECB2E9CAC7B7F1D3D02E
:10540000B0B4D1B9D6B8CEC6C4A3BFE90D0A000066
:10541000D6B8CEC6D1E9D6A4CAA7B0DC2D2D25308A
:1054200032580D0A00000000D7D4B6AFD1E9D6A497
:10543000D6B8CEC63AB3ACCAB10D0A00D7D4B6AF0F
:10544000D1E9D6A4D6B8CEC6A3BAB7D6CAFDD6B5CA
:10545000D2ECB3A3A3ACBFC9C4DCC3BBD3D0B4E606
:10546000D4DAB8C3D6B8CEC60D0A000010B5FDF721
:105470006DFF4FF46140FEF72DF900F033F8BDE801
:10548000104000F01FB800002DE9F0410D4606461F
:1054900000240A4F0AE0295D3846FEF7BBF8802158
:1054A0003846FEF71FF80028F9D0641CB442F2DB3E
:1054B00003490020C8608860BDE8F08100440040D6
:1054C000600800200EB504A007C88DE807006946F3
:1054D0000C20FFF7D9FF0EBDEF01FFFFFFFF01001A
:1054E0000333003770B501211020FDF707FB0121C0
:1054F0008803FDF71BFB1348402500260560067155
:10550000032444710221C17101460F48FCF7D7FF03
:1055100006210420FDF7E2FD0A4808210830056055
:105520000671417101258571FCF7F8FE05481721C8
:10553000001F017044708470C570BDE87040FDF7B5
:10554000F9B80000780800200010024003490A88DA
:105550005206FCD5C2B28A8070470000001001409C
:105560002DE9F05F4F4E0027C6F898720125C6F866
:105570009C524D4CC4F89852C4F8A052022004F535
:105580000B74FCF7F7FD2068A4F50B74002865D0B8
:10559000DFF81891D9F81402002865D0DFF81081DF
:1055A000D8F81802F0B3DFF80CA1DAF82402D0B36F
:1055B000C6F89852C6F89C72C4F89852C4F8A05223
:1055C0000220FCF7D7FDD4F82C0268B3D9F81402F6
:1055D00058B3D8F8180248B3DAF8240238B3C6F83A
:1055E0009852C6F89C520020A346C4F89802C4F80A
:1055F000A052022004F50B74FCF7BCFD206878B3C0
:10560000D9F814024C4660B3D8F81802474648B39C
:10561000DAF8240238B3C6F89852C6F89C52CBF890
:10562000985205E022E023E024E025E026E027E090
:105630000020CBF8A00202200BF50B76FCF79AFDB8
:10564000306838B3D4F8140230B3D7F8180228B34E
:10565000DAF8240220B34E20BDE8F09F3120FBE7AA
:1056600010E011E012E013E03220F5E73320F3E719
:105670004120F1E73420EFE73520EDE73620EBE776
:105680004220E9E73720E7E73820E5E73920E3E77C
:105690004320E1E72A20DFE73020DDE72320DBE7B6
:1056A0004420D9E7008041420000414200004242CC
:1056B00000004042000043422DE9F041012108462C
:1056C000FDF71CFA01210420FDF718FA012108203A
:1056D000FDF714FA01211020FDF710FA0121202016
:1056E000FDF70CFA01214020FDF708FA1D4C0126B8
:1056F00000252671A571C020206003206071E5712E
:1057000021461948FCF7DBFE4FF4A070174F2060CC
:1057100021463846FCF7D3FE30022060214614486B
:10572000FCF7CDFEE671257140202060214611482E
:10573000FCF7C5FE2020206021460F48FCF7BFFE85
:105740007002206021460D48FCF7B9FEF00220608F
:1057500021463846FCF7B3FE0948C0F8A052BDE820
:10576000F081000058080020000C024000080240B0
:1057700000140240000002400010024000180240E5
:105780000080424270B5012186B00846FDF7B6F9A7
:1057900001211020FDF7B2F901218803FDF7C6F9B8
:1057A00000248DF80840032601258DF80960019535
:1057B0008DF80B4001A92F48FCF781FE1C208DF8C5
:1057C000084001908DF809608DF80B4001A92A4826
:1057D000FCF775FE00210846FDF780FC022104203D
:1057E000FDF77CFC03210420FDF778FC042108462A
:1057F000FDF774FC1D2003908DF810400C208DF8EF
:1058000011008DF8125003A8FCF788FD06208DF8D2
:10581000000008268DF8016005248DF802408DF8FF
:1058200003506846FCF786FF8DF800608DF8014054
:105830008DF802408DF803506846FCF77BFF092085
:105840008DF800008DF801408DF802408DF803506E
:105850006846FCF76FFF0A208DF800008DF80140C4
:105860008DF802408DF803506846FCF763FF06B0E0
:1058700070BD000000000240001002401CB54FF453
:105880004070FCF789FF14484FF47A710068B0FB50
:10589000F1F0401EB0F1807F0AD24FF0E021486164
:1058A0000E4AF02082F8140D00208861072008615C
:1058B0004FF4E130FDF7B4FE09490520CDE90001C0
:1058C00000234FF4007207A10A4801F05BFD00F0CD
:1058D000FBFF00201CBD0000FC0000200FE000E0EA
:1058E000080000206170705F7461736B5F696E699E
:1058F00074000000A53B0008064908714FF4806061
:10590000086001208871032048710020C871024896
:10591000FCF7D5BD10010020000C02402DE9F0413C
:10592000184E0F460446F5683068001D00F0C2FCB2
:1059300038B9306890F82C100120884031698143D3
:105940003161601C07D137B13168BDE8F0410E48C4
:10595000091D00F02ABD30682C44AC424460316817
:1059600005D2B06BBDE8F041091D00F006BD706BBB
:10597000091D00F002FDB06A844200D2B462BDE8A5
:10598000F0810000D8080020040D00202DE9F0412E
:10599000054600F017FD2D4EB068401CB060306821
:1059A0002B4F10B1706930B32BE03560B06801281F
:1059B00027D1002404EB840007EB800000F0CFFC2B
:1059C000641C202CF6D3234800F0C9FC2148143075
:1059D00000F0C5FC1F48283000F0C1FC1D483C30D9
:1059E00000F0BDFC1B48503000F0B9FC1948706352
:1059F0001430B06305E03068E96AC06A884200D8B4
:105A00003560706A0121401C70622864E86A32695E
:105A100081401143316100EB800007EB8000291DBC
:105A200000F0C3FC00F0EEFC706900280CD0306878
:105A3000E96AC06A884207D207494FF0805008607F
:105A4000BFF34F8FBFF36F8FBDE8F081D808002000
:105A5000340A0020B40C002004ED00E010B500F082
:105A6000B1FC0E4C2068A0B90D4800F078FC0C4841
:105A7000143000F074FC0A48E06014302061002209
:105A800010210A2001F06EF9206010B105A100F08C
:105A900037FDBDE8104000F0B5BC0000140900203F
:105AA000180D0020546D72510000000030B4026CDB
:105AB0000B46002A0BD0C1681144C1604468A14262
:105AC00001D30168C16030BC1846FAF75BBF30BC37
:105AD00070472DE9F041856B174604460026026C9D
